:03000000020008F3
:0300610002000397
:0500030012006480FE04
:08006400758901D28C75A00022
:09006C0043A001758C4C758A005B
:05007500108D0280FB6C
:09007A0053A0FE758C4C758A0040
:05008300108D0280FB5E
:0200880080E214
:06003700E478FFF6D8FD9D
:080015007900E94400601B7A48
:05001D000090008E7848
:030022000075A0C6
:0A00250000E493F2A308B8000205FE
:08002F00A0D9F4DAF275A0FF7C
:08003D007800E84400600A7934
:030045000075A0A3
:0600480000E4F309D8FCFE
:08004E007800E84400600C7921
:0B00560000900000E4F0A3D8FCD9FAF1
:03000800758107F8
:0A000B0012008AE582600302000380
:04008A007582002259
:00000001FF
