:0400000002001332B5
:03000B0002009957
:07006C00751000E4F515F525
:0500730016E4F517F58D
:01007800186F
:0300790002000E74
:05000E0012007C80FEE1
:0E007C00758901758CFD758A18D28CD2A9D2B7
:08008A00AF751100751200753D
:050092001300751400CD
:0200970080FEE9
:0C009900C020C0E0C0F0C082C083C002E4
:0E00A500C003C004C005C006C007C000C001F3
:0E00B300C0D075D008758CFD758A18740AC00F
:0A00C100E0E4C0E085178285188393
:0E00CB0075D00012020075D008AA82158115AA
:0B00D900818A117464C0E0E4C0E0857F
:0900E400178285188375D0001203
:0E00ED00020075D008AA82AB831581158174BC
:0E00FB000AC0E0E4C0E08A828B8375D0001258
:0C01090001CF75D008AA82158115818AEB
:0A0115001274E8C0E07403C0E08536
:09011F00178285188375D00012C7
:0E012800020075D008AA82AB83158115817480
:0E01360064C0E0E4C0E08A828B8375D00012C2
:0C01440001CF75D008AA82158115818AB0
:0A0150001374E8C0E07403C0E085FA
:09015A00178285188375D000128C
:0E01630001CF75D008AA82AB83158115818A61
:05017100140515E4B5C2
:040176001502051653
:0A017A00C374059515E49516502E88
:09018400E51090024993F580E5B5
:07018D00102411F8E6FA90BE
:08019400024D93F5A0051005D2
:06019C0017E4B51702058F
:0101A2001844
:0501A3007403B510001B
:0501A80050037510007A
:0501AD00E4F515F51654
:0E01B200D0D0D001D000D007D006D005D004A8
:0D01C000D003D002D083D082D0F0D0E0D0A8
:0201CD002032DE
:040249000E0D0B0784
:0B024D00039F250D9949411F0109FF87
:0A01CF00E58124FEF8E6F918E6F8D1
:0501D9007A10E4FBFCBC
:0E01DE00E58225E0F582E58333F583EB33FB04
:0E01EC00EC33FCEB98F5F0EC994006FCABF020
:0301FA004382013C
:0301FD00DADF2224
:06004200E478FFF6D8FD92
:080020007900E94400601B7A3D
:05002800009002587871
:03002D000075A0BB
:0A00300000E493F2A308B8000205F3
:08003A00A0D9F4DAF275A0FF71
:080048007800E84400600A7929
:030050000075A098
:0600530000E4F309D8FCF3
:080059007800E84400600C7916
:0B00610000900000E4F0A3D8FCD9FAE6
:03001300758120D4
:0A001600120245E582600302000EAD
:0A020000E58124FEF886011886004F
:06020A00E84960367A01AC
:0E021000E825E0F8E933400EF9E58298E58331
:06021E009940030A80EC88
:02022400C3E92C
:0502260013F9E813F8D4
:0E022B00C3E58298F5F0E583994005F58385DB
:02023900F08251
:09023B00C3E913F9E813F8DAE74E
:010244002297
:04024500758200229C
:00000001FF
