:0400000002002332A5
:03000B000200BD33
:0100130032BA
:03001B000201EDF2
:07007C00751000E4F515F515
:0500830016E4F517F57D
:0500880018E4F519F574
:05008D001AE4F51BF56B
:010092001C51
:0300930002001E4A
:05001E0012009680FEB7
:0E009600758901758CFD758A18D28CD2A975FA
:0C00A4008D00758B4CD28ED2ABD2AF75A4
:0600B0001100751200753D
:0500B6001300751400A9
:0200BB0080FEC5
:0C00BD00C020C0E0C0F0C082C083C002C0
:0E00C900C003C004C005C006C007C000C001CF
:0C00D700C0D075D008758CFD758A180526
:0600E30015E4B51502054D
:0100E9001600
:0A00EA00C374059515E49516400354
:0300F4000201D036
:0900F700E5109002DD93F580E5AF
:06010000102411F8E69046
:0C01060002E193F5A00510740AC0E0E4CB
:0A011200C0E085178285188375D0C0
:0E011C000012029475D008AA82158115818AFE
:0A012A00147464C0E0E4C0E085171F
:0C0134008285188375D00012029475D0EB
:0E01400008AA82AB8315811581740AC0E0E421
:0E014E00C0E08A828B8375D00012026375D0E8
:0C015C0008AA82158115818A1374E8C07E
:0A016800E07403C0E08517828518DB
:0E0172008375D00012029475D008AA82AB8368
:0E018000158115817464C0E0E4C0E08A828BB2
:0E018E008375D00012026375D008AA82158115
:0C019C0015818A1274E8C0E07403C0E012
:0A01A80085178285188375D00012B8
:0E01B200026375D008AA82AB83158115818A7D
:0601C000117403B51000EC
:0501C60050037510005C
:0501CB00E4F515F51636
:0E01D000D0D0D001D000D007D006D005D0048A
:0D01DE00D003D002D083D082D0F0D0E0D08A
:0201EB002032C0
:0C01ED00C020C0E0C0F0C082C083C0028F
:0E01F900C003C004C005C006C007C000C0019E
:0C020700C0D075D008758D00758B4C05BB
:0602130019E4B519020513
:010219001ACA
:0B021A00740AC0E0E4C0E08519828592
:0C0225001A8375D00012029475D008AA4C
:0E02310082AB8315811581BA010BBB00080555
:06023F0017E4B5170205EB
:0102450018A0
:0E024600D0D0D001D000D007D006D005D00413
:0D025400D003D002D083D082D0F0D0E0D013
:02026100203249
:0402DD000E0D0B07F0
:0B02E100039F250D9949411F0109FFF3
:0A026300E58124FEF8E6F918E6F83C
:05026D007A10E4FBFC27
:0E027200E58225E0F582E58333F583EB33FB6F
:0E028000EC33FCEB98F5F0EC994006FCABF08B
:03028E00438201A7
:03029100DADF228F
:06005200E478FFF6D8FD82
:080030007900E94400601B7A2D
:05003800009002EC78CD
:03003D000075A0AB
:0A00400000E493F2A308B8000205E3
:08004A00A0D9F4DAF275A0FF61
:080058007800E84400600A7919
:030060000075A088
:0600630000E4F309D8FCE3
:080069007800E84400600C7906
:0B00710000900000E4F0A3D8FCD9FAD6
:03002300758120C4
:0A0026001202D9E582600302001EF9
:0A029400E58124FEF88601188600BB
:06029E00E84960367A0118
:0E02A400E825E0F8E933400EF9E58298E5839D
:0602B2009940030A80ECF4
:0202B800C3E998
:0502BA0013F9E813F840
:0E02BF00C3E58298F5F0E583994005F5838547
:0202CD00F082BD
:0902CF00C3E913F9E813F8DAE7BA
:0102D8002203
:0402D9007582002208
:00000001FF
