:0600000002001B02020CCD
:03000B000200B739
:03001300020235B1
:07007400751000E4F515F51D
:05007B0016E4F517F585
:0500800018E4F519F57C
:050085001AE4F51BF573
:05008A001C751D00754E
:02008F001E0051
:0300910002001654
:0500160012009480FEC1
:0E009400758901758CFD758A18D28CD2A9D29F
:0B00A200AAD2A8D2B9D2AF7511007528
:0600AD001200751300753E
:0200B300140037
:0200B50080FECB
:0C00B700C020C0E0C0F0C082C083C002C6
:0E00C300C003C004C005C006C007C000C001D5
:0C00D100C0D075D008758CFD758A18052C
:0600DD0015E4B515020553
:0100E3001606
:0A00E400C374059515E4951640035A
:0300EE000201E923
:0900F100E5109002DC93F580E5B6
:0600FA00102411F8E6904D
:0C01000002E093F5A00510740AC0E0E4D2
:0A010C00C0E085178285188375D0C6
:0E0116000012029375D008AA82158115818A05
:0A012400147464C0E0E4C0E0851725
:0C012E008285188375D00012029375D0F2
:0E013A0008AA82AB8315811581740AC0E0E427
:0E014800C0E08A828B8375D00012026275D0EF
:0E01560008AA82AB8315811581EA4B700575EE
:04016400130A8002F8
:020168008A13F8
:0C016A0074E8C0E07403C0E085178285D3
:0C017600188375D00012029375D008AAFF
:0E01820082AB83158115817464C0E0E4C0E097
:0E0190008A828B8375D00012026275D008AA95
:0C019E0082AB8315811581EA4B7005755A
:0401AA00120A8002B3
:0201AE008A12B3
:0C01B00074E8C0E07403C0E0851782858D
:0C01BC00188375D00012026275D008AAEA
:0C01C80082AB8315811581EA4B70057530
:0401D400110A80028A
:0201D8008A118A
:0501DA007403B51000E4
:0501DF00500375100043
:0501E400E4F515F5161D
:0A01E900751D01751E01D0D0D00174
:0E01F300D000D007D006D005D004D003D00233
:0B020100D083D082D0F0D0E0D02032BB
:0E020C00C0E0C0D075D008758CFD758A1874DE
:08021A0001B51D12751D00E580
:06022200174518600915E4
:070228001774FFB517021562
:01022F0018B6
:05023000D0D0D0E03247
:0E023500C0E0C0D075D008758CFD758A1874B5
:0902430001B51E16751E00C3E58D
:0A024C00179414E5189400500805FB
:0602560017E4B5170205D4
:01025C001889
:05025D00D0D0D0E0321A
:0402DC000E0D0B07F1
:0B02E000039F250D9949411F0109FFF4
:0A026200E58124FEF8E6F918E6F83D
:05026C007A10E4FBFC28
:0E027100E58225E0F582E58333F583EB33FB70
:0E027F00EC33FCEB98F5F0EC994006FCABF08C
:03028D00438201A8
:03029000DADF2290
:06004A00E478FFF6D8FD8A
:080028007900E94400601B7A35
:05003000009002EB78D6
:030035000075A0B3
:0A00380000E493F2A308B8000205EB
:08004200A0D9F4DAF275A0FF69
:080050007800E84400600A7921
:030058000075A090
:06005B0000E4F309D8FCEB
:080061007800E84400600C790E
:0B00690000900000E4F0A3D8FCD9FADE
:03001B00758120CC
:0A001E001202D8E58260030200160A
:0A029300E58124FEF88601188600BC
:06029D00E84960367A0119
:0E02A300E825E0F8E933400EF9E58298E5839E
:0602B1009940030A80ECF5
:0202B700C3E999
:0502B90013F9E813F841
:0E02BE00C3E58298F5F0E583994005F5838548
:0202CC00F082BE
:0902CE00C3E913F9E813F8DAE7BB
:0102D7002204
:0402D8007582002209
:00000001FF
