:0400000002001332B5
:03000B000200945C
:07006C00751000E4F515F525
:010073001676
:0300740002000E79
:05000E0012007780FEE6
:0E007700758901758CD2758A20D28CD2A9D2DF
:08008500AF7511057512067537
:05008D001308751409C1
:0200920080FEEE
:0E009400C0E0C082C083C0D075D008758CD289
:0A00A200758A200515E4B515020566
:0100AC00163D
:0A00AD00C374329515E49516502631
:0900B700E5109000EA93F580E5E4
:0700C000102411F8E6FA908C
:0A00C70000EE93F5A005107403B5D8
:0200D10010001D
:0500D300500375100050
:0500D800E4F515F5162A
:0900DD00D0D0D083D082D0E032F3
:0400EA000E0D0B07E5
:0B00EE00039F250D9949411F0109FFE8
:06004200E478FFF6D8FD92
:080020007900E94400601B7A3D
:05002800009000F978D2
:03002D000075A0BB
:0A00300000E493F2A308B8000205F3
:08003A00A0D9F4DAF275A0FF71
:080048007800E84400600A7929
:030050000075A098
:0600530000E4F309D8FCF3
:080059007800E84400600C7916
:0B00610000900000E4F0A3D8FCD9FAE6
:03001300758116DE
:0A0016001200E6E582600302000E0E
:0400E60075820022FD
:00000001FF
