:0600000002001B020116C4
:03000B000200BE32
:03001300020143A4
:07007400751000E4F515F51D
:05007B0016E4F517F585
:0500800018E4F519F57C
:050085001A751B007557
:02008A001C0058
:03008C0002001659
:0500160012008F80FEC6
:0E008F00758901758CFD758A18D28CD2A9D2A4
:0B009D00AAD2A8D2B9D2AF75110A7523
:0600A80012017513027540
:0600AE00140375150A752C
:0600B400160A75170A751B
:0200BA00180A22
:0200BC0080FEC4
:0E00BE00C0E0C082C083C0D075D008758CFD34
:0A00CC00758A180515E4B515020544
:0100D6001613
:0A00D700C374059515E49516502634
:0900E100E51090017493F580E52F
:0700EA00102411F8E6FA9062
:0A00F100017893F5A005107403B523
:0200FB001000F3
:0500FD00500375100026
:05010200E4F515F516FF
:0A010700751B01751C01D0D0D083D8
:05011100D082D0E032B5
:0E011600C0E0C0D075D008758CFD758A1874D5
:0901240001B51B16751B00C3E5B3
:0A012D00199409E51A940050080522
:0601370019E4B5190205F0
:01013D001AA7
:05013E00D0D0D0E0323A
:0E014300C0E0C0D075D008758CFD758A1874A8
:0901510001B51C16751C00C3E584
:0A015A00179409E5189400500805F9
:0601640017E4B5170205C7
:01016A00187C
:05016B00D0D0D0E0320D
:040174000E0D0B075A
:0B017800039F250D9949411F0109FF5D
:06004A00E478FFF6D8FD8A
:080028007900E94400601B7A35
:0500300000900183783F
:030035000075A0B3
:0A00380000E493F2A308B8000205EB
:08004200A0D9F4DAF275A0FF69
:080050007800E84400600A7921
:030058000075A090
:06005B0000E4F309D8FCEB
:080061007800E84400600C790E
:0B00690000900000E4F0A3D8FCD9FADE
:03001B0075811CD0
:0A001E00120170E582600302001673
:040170007582002272
:00000001FF
