:0400000002002332A5
:03000B000200CA26
:0100130032BA
:03001B0002015A85
:07007C00751000E4F515F515
:0500830016E4F517F57D
:0500880018E4F519F574
:05008D001A751B00754F
:060092001C00751D007545
:020098001E0048
:03009A0002001E43
:05001E0012009D80FEB0
:0E009D00758901758CFD758A18D28CD2A975F3
:0E00AB008D00758B4CD28ED2ABD2AAD2A8D2C9
:0A00B900B9D2AF7511007512007581
:0500C30013007514009C
:0200C80080FEB8
:0E00CA00C0E0C082C083C0D075D008758CFD28
:0A00D800758A180515E4B515020538
:0100E2001607
:0A00E300C374059515E49516505EF0
:0900ED00E51090019B93F580E5FC
:0600F600102411F8E69051
:0800FC00019F93F5A00510AA75
:04010400198A1175CE
:06010800130A75120AAA99
:06010E00178A147403B50A
:020114001000D9
:0501160050037510000C
:06011B00E4F515F51605E0
:060121001D7464B51D0011
:0A01270050227401B51B1A751B006D
:070131000519E4B5190205F0
:010138001AAC
:0A013900C374099519E4951A5005E6
:05014300E4F519F51AB6
:03014800751D0022
:0A014B00751B01751C01D0D0D08394
:05015500D082D0E03271
:0E015A00C0E0C0D075D008758D00758B4C05C7
:060168001E7464B51E00C8
:0A016E0050227401B51C1D751E001F
:07017800751C000517E4B53A
:04017F001702051846
:0A018300C374099517E495185005A0
:05018D00E4F517F51870
:05019200D0D0D0E032E6
:04019B000E0D0B0733
:0B019F00039F250D9949411F0109FF36
:06005200E478FFF6D8FD82
:080030007900E94400601B7A2D
:05003800009001AA7810
:03003D000075A0AB
:0A00400000E493F2A308B8000205E3
:08004A00A0D9F4DAF275A0FF61
:080058007800E84400600A7919
:030060000075A088
:0600630000E4F309D8FCE3
:080069007800E84400600C7906
:0B00710000900000E4F0A3D8FCD9FAD6
:0300230075811EC6
:0A002600120197E582600302001E3C
:04019700758200224B
:00000001FF
