:0600000002002302012EA4
:03000B000200D61A
:03001300020147A0
:03001B000201607F
:07007C00751000E4F519F511
:050083001AE4F51BF575
:050088001CE4F51DF56C
:05008D001E751F007547
:060092002000752100753D
:02009800220044
:03009A0002001E43
:05001E0012009D80FEB0
:0E009D00758901758CFD758A18D28CD2A9D296
:0E00AB00AAD2A8D2B9D2AF758D00758B4CD2F7
:0A00B9008ED2AB75110A75120175A5
:0600C30013027514037521
:0600C900150A75160A7508
:0500CF00170A75180A74
:0200D40080FEAC
:0E00D600C0E0C082C083C0D075D008758CFD1C
:0A00E400758A180519E4B519020524
:0100EE001AF7
:0A00EF00C374059519E4951A502614
:0900F900E5109001D093F580E5BB
:07010200102411F8E6FA9049
:0A01090001D493F5A005107403B5AE
:020113001000DA
:0501150050037510000D
:05011A00E4F519F51ADF
:0A011F00751F00752000D0D0D083BA
:05012900D082D0E0329D
:0E012E00C0E0C0D075D008758CFD758A18E54C
:06013C001F7003751F0196
:05014200D0D0D0E03236
:0E014700C0E0C0D075D008758CFD758A18E533
:060155002070037520017B
:05015B00D0D0D0E0321D
:0E016000C0E0C0D075D008758D00758B4C05C1
:06016E00227464B52200BA
:0A01740050517522007401B52022DD
:04017E00851821AA15
:04018200178A18AA16
:04018600168A17AA14
:04018A00158A16AA12
:04018E00148A15AA10
:04019200138A14AA0E
:04019600128A13AA0C
:04019A00118A12852F
:02019E0021112D
:0701A0007401B51F22851157
:0401A70021AA128AED
:0401AB0011AA138AF8
:0401AF0012AA148AF2
:0401B30013AA158AEC
:0401B70014AA168AE6
:0401BB0015AA178AE0
:0401BF0016AA188ADA
:0301C3001785217C
:0101C6001820
:0501C700D0D0D0E032B1
:0401D0000E0D0B07FE
:0B01D400039F250D9949411F0109FF01
:06005200E478FFF6D8FD82
:080030007900E94400601B7A2D
:05003800009001DF78DB
:03003D000075A0AB
:0A00400000E493F2A308B8000205E3
:08004A00A0D9F4DAF275A0FF61
:080058007800E84400600A7919
:030060000075A088
:0600630000E4F309D8FCE3
:080069007800E84400600C7906
:0B00710000900000E4F0A3D8FCD9FAD6
:03002300758122C2
:0A0026001201CCE582600302001E07
:0401CC007582002216
:00000001FF
